<!DOCTYPE html>
<html>
<head><meta name="generator" content="Hexo 3.8.0">
  <meta charset="utf-8">
  
<!-- Google Analytics -->
<script type="text/javascript">
(function(i,s,o,g,r,a,m){i['GoogleAnalyticsObject']=r;i[r]=i[r]||function(){
(i[r].q=i[r].q||[]).push(arguments)},i[r].l=1*new Date();a=s.createElement(o),
m=s.getElementsByTagName(o)[0];a.async=1;a.src=g;m.parentNode.insertBefore(a,m)
})(window,document,'script','//www.google-analytics.com/analytics.js','ga');

ga('create', 'UA-42912223-1', 'auto');
ga('send', 'pageview');

</script>
<!-- End Google Analytics -->


  
  <title>比特币交易构成（二） | 比特币实验室</title>
  <meta name="viewport" content="width=device-width, initial-scale=1, shrink-to-fit=no">
  <meta name="description" content="交易的构造、签名与广播上篇介绍了交易结构、签名等，为了更直观的认识比特币，借助bitcoind演示手动构造并广播交易的完整过程。 普通交易1. 找出未花费的币（unspent output）通过命令：listunspent [minconf=1] [maxconf=9999999]  [&amp;quot;address&amp;quot;,...]列出某个地址未花费的币(交易)，minconf/maxconf表">
<meta property="og:type" content="article">
<meta property="og:title" content="比特币交易构成（二）">
<meta property="og:url" content="http://panzhibiao.com/2013/10/27/bitcoin-transaction-02/index.html">
<meta property="og:site_name" content="比特币实验室">
<meta property="og:description" content="交易的构造、签名与广播上篇介绍了交易结构、签名等，为了更直观的认识比特币，借助bitcoind演示手动构造并广播交易的完整过程。 普通交易1. 找出未花费的币（unspent output）通过命令：listunspent [minconf=1] [maxconf=9999999]  [&amp;quot;address&amp;quot;,...]列出某个地址未花费的币(交易)，minconf/maxconf表">
<meta property="og:locale" content="default">
<meta property="og:updated_time" content="2018-03-25T15:08:43.000Z">
<meta name="twitter:card" content="summary">
<meta name="twitter:title" content="比特币交易构成（二）">
<meta name="twitter:description" content="交易的构造、签名与广播上篇介绍了交易结构、签名等，为了更直观的认识比特币，借助bitcoind演示手动构造并广播交易的完整过程。 普通交易1. 找出未花费的币（unspent output）通过命令：listunspent [minconf=1] [maxconf=9999999]  [&amp;quot;address&amp;quot;,...]列出某个地址未花费的币(交易)，minconf/maxconf表">
  
    <link rel="alternate" href="/atom.xml" title="比特币实验室" type="application/atom+xml">
  
  
    <link rel="icon" href="/favicon.png">
  
  
    <link href="//fonts.googleapis.com/css?family=Source+Code+Pro" rel="stylesheet" type="text/css">
  
  <link rel="stylesheet" href="/css/style.css">
</head>
</html>
<body>
  <div id="container">
    <div id="wrap">
      <header id="header">
  <div id="banner"></div>
  <div id="header-outer" class="outer">
    <div id="header-title" class="inner">
      <h1 id="logo-wrap">
        <a href="/" id="logo">比特币实验室</a>
      </h1>
      
        <h2 id="subtitle-wrap">
          <a href="/" id="subtitle">panzhibiao.com</a>
        </h2>
      
    </div>
    <div id="header-inner" class="inner">
      <nav id="main-nav">
        <a id="main-nav-toggle" class="nav-icon"></a>
        
          <a class="main-nav-link" href="/">Home</a>
        
          <a class="main-nav-link" href="/archives">Archives</a>
        
      </nav>
      <nav id="sub-nav">
        
          <a id="nav-rss-link" class="nav-icon" href="/atom.xml" title="RSS Feed"></a>
        
        <a id="nav-search-btn" class="nav-icon" title="Search"></a>
      </nav>
      <div id="search-form-wrap">
        <form action="//google.com/search" method="get" accept-charset="UTF-8" class="search-form"><input type="search" name="q" class="search-form-input" placeholder="Search"><button type="submit" class="search-form-submit">&#xF002;</button><input type="hidden" name="sitesearch" value="http://panzhibiao.com"></form>
      </div>
    </div>
  </div>
</header>
      <div class="outer">
        <section id="main"><article id="post-bitcoin-transaction-02" class="article article-type-post" itemscope="" itemprop="blogPost">
  <div class="article-meta">
    <a href="/2013/10/27/bitcoin-transaction-02/" class="article-date">
  <time datetime="2013-10-27T11:54:00.000Z" itemprop="datePublished">Oct 27 2013</time>
</a>
    
  </div>
  <div class="article-inner">
    
    
      <header class="article-header">
        
  
    <h1 class="article-title" itemprop="name">
      比特币交易构成（二）
    </h1>
  

      </header>
    
    <div class="article-entry" itemprop="articleBody">
      
        <h2 id="交易的构造、签名与广播"><a href="#交易的构造、签名与广播" class="headerlink" title="交易的构造、签名与广播"></a>交易的构造、签名与广播</h2><p>上篇介绍了交易结构、签名等，为了更直观的认识比特币，借助<strong>bitcoind</strong>演示手动构造并广播交易的完整过程。</p>
<h3 id="普通交易"><a href="#普通交易" class="headerlink" title="普通交易"></a>普通交易</h3><h4 id="1-找出未花费的币（unspent-output）"><a href="#1-找出未花费的币（unspent-output）" class="headerlink" title="1. 找出未花费的币（unspent output）"></a>1. 找出未花费的币（unspent output）</h4><p>通过命令：<code>listunspent [minconf=1] [maxconf=9999999]  [&quot;address&quot;,...]</code>列出某个地址未花费的币(交易)，<code>minconf</code>/<code>maxconf</code>表示该笔收入交易的确认数范围，如果需要列出还未确认的交易，需将<code>minconf</code>设置为0。</p>
<p>执行：</p>
<figure class="highlight plain"><table><tr><td class="gutter"><pre><span class="line">1</span><br></pre></td><td class="code"><pre><span class="line">bitcoind listunspent 0 100 &apos;[&quot;1Lab618UuWjLmVA1Q64tHZXcLoc4397ZX3&quot;]&apos;</span><br></pre></td></tr></table></figure>
<p>输出：</p>
<figure class="highlight plain"><table><tr><td class="gutter"><pre><span class="line">1</span><br><span class="line">2</span><br><span class="line">3</span><br><span class="line">4</span><br><span class="line">5</span><br><span class="line">6</span><br><span class="line">7</span><br><span class="line">8</span><br><span class="line">9</span><br><span class="line">10</span><br><span class="line">11</span><br></pre></td><td class="code"><pre><span class="line">[</span><br><span class="line">    &#123;</span><br><span class="line">        &quot;txid&quot; : &quot;296ea7bf981b44999d689853d17fe0ceb852a8a34e68fcd19f0a41e589132156&quot;,</span><br><span class="line">        &quot;vout&quot; : 0,</span><br><span class="line">        &quot;address&quot; : &quot;1Lab618UuWjLmVA1Q64tHZXcLoc4397ZX3&quot;,</span><br><span class="line">        &quot;account&quot; : &quot;&quot;,</span><br><span class="line">        &quot;scriptPubKey&quot; : &quot;76a914d6c492056f3f99692b56967a42b8ad44ce76b67a88ac&quot;,</span><br><span class="line">        &quot;amount&quot; : 0.19900000,</span><br><span class="line">        &quot;confirmations&quot; : 1</span><br><span class="line">    &#125;</span><br><span class="line">]</span><br></pre></td></tr></table></figure>
<p>我们找到该地址的一个未花费交易，位于交易<a href="http://blockchain.info/tx/296ea7bf981b44999d689853d17fe0ceb852a8a34e68fcd19f0a41e589132156" target="_blank" rel="noopener">296ea7bf981b4499…9f0a41e589132156</a>的第0个位置。</p>
<h4 id="2-创建待发送交易"><a href="#2-创建待发送交易" class="headerlink" title="2. 创建待发送交易"></a>2. 创建待发送交易</h4><p>创建待发送交易，由命令：<code>createrawtransaction [{&quot;txid&quot;:txid,&quot;vout&quot;:n},...] {address:amount,...}</code>来完成。我们将 <em>0.1</em> BTC发送至 <em>1Q8s4qDRbCbFypG5AFNR9tFC57PStkPX1x</em> ，并支付 <em>0.0001</em> BTC做为矿工费。输入交易的额度为 <em>0.199</em> ，输出为 <em>0.1 + 0.0001 = 0.1001</em> ，那么还剩余： <em>0.199 - 0.1001 = 0.0989</em> ，将此作为找零发回给自己。</p>
<p>执行：</p>
<figure class="highlight plain"><table><tr><td class="gutter"><pre><span class="line">1</span><br><span class="line">2</span><br><span class="line">3</span><br></pre></td><td class="code"><pre><span class="line">bitcoind createrawtransaction \</span><br><span class="line">&apos;[&#123;&quot;txid&quot;:&quot;296ea7bf981b44999d689853d17fe0ceb852a8a34e68fcd19f0a41e589132156&quot;,&quot;vout&quot;:0&#125;]&apos; \</span><br><span class="line">&apos;&#123;&quot;1Q8s4qDRbCbFypG5AFNR9tFC57PStkPX1x&quot;:0.1, &quot;1Lab618UuWjLmVA1Q64tHZXcLoc4397ZX3&quot;:0.0989&#125;&apos;</span><br></pre></td></tr></table></figure>
<p>输出：</p>
<figure class="highlight plain"><table><tr><td class="gutter"><pre><span class="line">1</span><br></pre></td><td class="code"><pre><span class="line">010000000156211389e5410a9fd1fc684ea3a852b8cee07fd15398689d99441b98bfa76e290000000000ffffffff0280969800000000001976a914fdc7990956642433ea75cabdcc0a9447c5d2b4ee88acd0e89600000000001976a914d6c492056f3f99692b56967a42b8ad44ce76b67a88ac00000000</span><br></pre></td></tr></table></figure>
<p>通过命令：<code>decoderawtransaction &lt;hex string&gt;</code>，可以将此段十六进制字符串解码。</p>
<p>执行：</p>
<figure class="highlight plain"><table><tr><td class="gutter"><pre><span class="line">1</span><br></pre></td><td class="code"><pre><span class="line">bitcoind decoderawtransaction &apos;010000000156211389e5410a9fd1fc684ea3a852b8cee07fd15398689d99441b98bfa76e290000000000ffffffff0280969800000000001976a914fdc7990956642433ea75cabdcc0a9447c5d2b4ee88acd0e89600000000001976a914d6c492056f3f99692b56967a42b8ad44ce76b67a88ac00000000&apos;</span><br></pre></td></tr></table></figure>
<p>输出：</p>
<figure class="highlight plain"><table><tr><td class="gutter"><pre><span class="line">1</span><br><span class="line">2</span><br><span class="line">3</span><br><span class="line">4</span><br><span class="line">5</span><br><span class="line">6</span><br><span class="line">7</span><br><span class="line">8</span><br><span class="line">9</span><br><span class="line">10</span><br><span class="line">11</span><br><span class="line">12</span><br><span class="line">13</span><br><span class="line">14</span><br><span class="line">15</span><br><span class="line">16</span><br><span class="line">17</span><br><span class="line">18</span><br><span class="line">19</span><br><span class="line">20</span><br><span class="line">21</span><br><span class="line">22</span><br><span class="line">23</span><br><span class="line">24</span><br><span class="line">25</span><br><span class="line">26</span><br><span class="line">27</span><br><span class="line">28</span><br><span class="line">29</span><br><span class="line">30</span><br><span class="line">31</span><br><span class="line">32</span><br><span class="line">33</span><br><span class="line">34</span><br><span class="line">35</span><br><span class="line">36</span><br><span class="line">37</span><br><span class="line">38</span><br><span class="line">39</span><br><span class="line">40</span><br><span class="line">41</span><br><span class="line">42</span><br><span class="line">43</span><br><span class="line">44</span><br></pre></td><td class="code"><pre><span class="line">&#123;</span><br><span class="line">    &quot;txid&quot; : &quot;54f773a3fdf7cb3292fc76b46c97e536348b3a0715886dbfd2f60e115fb3a8f0&quot;,</span><br><span class="line">    &quot;version&quot; : 1,</span><br><span class="line">    &quot;locktime&quot; : 0,</span><br><span class="line">    &quot;vin&quot; : [</span><br><span class="line">        &#123;</span><br><span class="line">            &quot;txid&quot; : &quot;296ea7bf981b44999d689853d17fe0ceb852a8a34e68fcd19f0a41e589132156&quot;,</span><br><span class="line">            &quot;vout&quot; : 0,</span><br><span class="line">            &quot;scriptSig&quot; : &#123;</span><br><span class="line">                &quot;asm&quot; : &quot;&quot;,</span><br><span class="line">                &quot;hex&quot; : &quot;&quot;</span><br><span class="line">            &#125;,</span><br><span class="line">            &quot;sequence&quot; : 4294967295</span><br><span class="line">        &#125;</span><br><span class="line">    ],</span><br><span class="line">    &quot;vout&quot; : [</span><br><span class="line">        &#123;</span><br><span class="line">            &quot;value&quot; : 0.10000000,</span><br><span class="line">            &quot;n&quot; : 0,</span><br><span class="line">            &quot;scriptPubKey&quot; : &#123;</span><br><span class="line">                &quot;asm&quot; : &quot;OP_DUP OP_HASH160 fdc7990956642433ea75cabdcc0a9447c5d2b4ee OP_EQUALVERIFY OP_CHECKSIG&quot;,</span><br><span class="line">                &quot;hex&quot; : &quot;76a914fdc7990956642433ea75cabdcc0a9447c5d2b4ee88ac&quot;,</span><br><span class="line">                &quot;reqSigs&quot; : 1,</span><br><span class="line">                &quot;type&quot; : &quot;pubkeyhash&quot;,</span><br><span class="line">                &quot;addresses&quot; : [</span><br><span class="line">                    &quot;1Q8s4qDRbCbFypG5AFNR9tFC57PStkPX1x&quot;</span><br><span class="line">                ]</span><br><span class="line">            &#125;</span><br><span class="line">        &#125;,</span><br><span class="line">        &#123;</span><br><span class="line">            &quot;value&quot; : 0.09890000,</span><br><span class="line">            &quot;n&quot; : 1,</span><br><span class="line">            &quot;scriptPubKey&quot; : &#123;</span><br><span class="line">                &quot;asm&quot; : &quot;OP_DUP OP_HASH160 d6c492056f3f99692b56967a42b8ad44ce76b67a OP_EQUALVERIFY OP_CHECKSIG&quot;,</span><br><span class="line">                &quot;hex&quot; : &quot;76a914d6c492056f3f99692b56967a42b8ad44ce76b67a88ac&quot;,</span><br><span class="line">                &quot;reqSigs&quot; : 1,</span><br><span class="line">                &quot;type&quot; : &quot;pubkeyhash&quot;,</span><br><span class="line">                &quot;addresses&quot; : [</span><br><span class="line">                    &quot;1Lab618UuWjLmVA1Q64tHZXcLoc4397ZX3&quot;</span><br><span class="line">                ]</span><br><span class="line">            &#125;</span><br><span class="line">        &#125;</span><br><span class="line">    ]</span><br><span class="line">&#125;</span><br></pre></td></tr></table></figure>
<p>至此，一个“空白交易”就构造好了，尚未使用私钥对交易进行签名，字段<code>scriptSig</code>是留空的，无签名的交易是无效的。此时的Tx ID并不是最终的Tx ID，填入签名后Tx ID会发生变化。</p>
<p>在手动创建交易时，务必注意输入、输出的值，<code>非常容易犯错的是忘记构造找零输出</code>（如非必要勿手动构造交易）。曾经有人构造交易时忘记找零，发生了<a href="https://blockchain.info/tx/4ed20e0768124bc67dc684d57941be1482ccdaa45dadb64be12afba8c8554537" target="_blank" rel="noopener">支付 <strong>200 BTC</strong> 的矿工费</a>的人间惨剧，所幸的是收录该笔交易的Block由著名挖矿团队“烤猫（Friedcat）”挖得，该团队非常厚道的<a href="https://blockchain.info/tx/b18abce37b48a5f434f108ae7ce34f22aa2bfbd9eb9310314029e4b9e3c7cf95" target="_blank" rel="noopener">退回了多余费用</a>。</p>
<h4 id="3-签名"><a href="#3-签名" class="headerlink" title="3. 签名"></a>3. 签名</h4><p>交易签名使用命令：</p>
<figure class="highlight plain"><table><tr><td class="gutter"><pre><span class="line">1</span><br><span class="line">2</span><br><span class="line">3</span><br></pre></td><td class="code"><pre><span class="line">signrawtransaction &lt;hex string&gt; \</span><br><span class="line">[&#123;&quot;txid&quot;:txid,&quot;vout&quot;:n,&quot;scriptPubKey&quot;:hex,&quot;redeemScript&quot;:hex&#125;,...] [&lt;privatekey1&gt;,...] \</span><br><span class="line">[sighashtype=&quot;ALL&quot;]</span><br></pre></td></tr></table></figure>
<ul>
<li>第一个参数是创建的待签名交易的十六进制字符串；</li>
<li>第二个参数有点类似创建交易时的参数，不过需要多出一个公钥字段<code>scriptPubKey</code>，其他节点验证交易时是通过公钥和签名来完成的，所以要提供公钥；如果是合成地址，则需要提供<code>redeemScript</code>；</li>
<li>第三个参数是即将花费的币所在地址的私钥，用来对交易进行签名，如果该地址私钥已经导入至bitcoind中，则无需显式提供；</li>
<li>最后一个参数表示签名类型，在上一篇里，介绍了三种交易签名类型；</li>
</ul>
<p>签名之前需要找到<code>scriptPubKey</code>，提取输入交易信息即可获取(也可以根据其公钥自行计算)，由命令：<code>getrawtransaction &lt;txid&gt; [verbose=0]</code>完成。</p>
<p>执行：</p>
<figure class="highlight plain"><table><tr><td class="gutter"><pre><span class="line">1</span><br></pre></td><td class="code"><pre><span class="line">bitcoind getrawtransaction 296ea7bf981b44999d689853d17fe0ceb852a8a34e68fcd19f0a41e589132156 1</span><br></pre></td></tr></table></figure>
<p>输出：</p>
<figure class="highlight plain"><table><tr><td class="gutter"><pre><span class="line">1</span><br><span class="line">2</span><br><span class="line">3</span><br><span class="line">4</span><br><span class="line">5</span><br><span class="line">6</span><br><span class="line">7</span><br><span class="line">8</span><br><span class="line">9</span><br><span class="line">10</span><br><span class="line">11</span><br><span class="line">12</span><br><span class="line">13</span><br><span class="line">14</span><br><span class="line">15</span><br><span class="line">16</span><br><span class="line">17</span><br><span class="line">18</span><br><span class="line">19</span><br><span class="line">20</span><br><span class="line">21</span><br><span class="line">22</span><br><span class="line">23</span><br><span class="line">24</span><br><span class="line">25</span><br><span class="line">26</span><br><span class="line">27</span><br><span class="line">28</span><br><span class="line">29</span><br><span class="line">30</span><br><span class="line">31</span><br><span class="line">32</span><br><span class="line">33</span><br><span class="line">34</span><br><span class="line">35</span><br><span class="line">36</span><br></pre></td><td class="code"><pre><span class="line">&#123;</span><br><span class="line">    &quot;hex&quot; : &quot;01000000010511331f639e974283d3909496787a660583dc88f41598d177e225b5f352314a000000006c493046022100be8c796122ec598295e6dfd6664a20a7e20704a17f76d3d925c9ec421ca60bc1022100cf9f2d7b9f24285f7c119c91f24521e5483f6b141de6ee55658fa70116ee04d4012103cad07f6de0b181891b5291a5bc82b228fe6509699648b0b53556dc0057eeb5a4ffffffff0160a62f01000000001976a914d6c492056f3f99692b56967a42b8ad44ce76b67a88ac00000000&quot;,</span><br><span class="line">    &quot;txid&quot; : &quot;296ea7bf981b44999d689853d17fe0ceb852a8a34e68fcd19f0a41e589132156&quot;,</span><br><span class="line">    &quot;version&quot; : 1,</span><br><span class="line">    &quot;locktime&quot; : 0,</span><br><span class="line">    &quot;vin&quot; : [</span><br><span class="line">        &#123;</span><br><span class="line">            &quot;txid&quot; : &quot;4a3152f3b525e277d19815f488dc8305667a78969490d38342979e631f331105&quot;,</span><br><span class="line">            &quot;vout&quot; : 0,</span><br><span class="line">            &quot;scriptSig&quot; : &#123;</span><br><span class="line">                &quot;asm&quot; : &quot;3046022100be8c796122ec598295e6dfd6664a20a7e20704a17f76d3d925c9ec421ca60bc1022100cf9f2d7b9f24285f7c119c91f24521e5483f6b141de6ee55658fa70116ee04d401 03cad07f6de0b181891b5291a5bc82b228fe6509699648b0b53556dc0057eeb5a4&quot;,</span><br><span class="line">                &quot;hex&quot; : &quot;493046022100be8c796122ec598295e6dfd6664a20a7e20704a17f76d3d925c9ec421ca60bc1022100cf9f2d7b9f24285f7c119c91f24521e5483f6b141de6ee55658fa70116ee04d4012103cad07f6de0b181891b5291a5bc82b228fe6509699648b0b53556dc0057eeb5a4&quot;</span><br><span class="line">            &#125;,</span><br><span class="line">            &quot;sequence&quot; : 4294967295</span><br><span class="line">        &#125;</span><br><span class="line">    ],</span><br><span class="line">    &quot;vout&quot; : [</span><br><span class="line">        &#123;</span><br><span class="line">            &quot;value&quot; : 0.19900000,</span><br><span class="line">            &quot;n&quot; : 0,</span><br><span class="line">            &quot;scriptPubKey&quot; : &#123;</span><br><span class="line">                &quot;asm&quot; : &quot;OP_DUP OP_HASH160 d6c492056f3f99692b56967a42b8ad44ce76b67a OP_EQUALVERIFY OP_CHECKSIG&quot;,</span><br><span class="line">                &quot;hex&quot; : &quot;76a914d6c492056f3f99692b56967a42b8ad44ce76b67a88ac&quot;,</span><br><span class="line">                &quot;reqSigs&quot; : 1,</span><br><span class="line">                &quot;type&quot; : &quot;pubkeyhash&quot;,</span><br><span class="line">                &quot;addresses&quot; : [</span><br><span class="line">                    &quot;1Lab618UuWjLmVA1Q64tHZXcLoc4397ZX3&quot;</span><br><span class="line">                ]</span><br><span class="line">            &#125;</span><br><span class="line">        &#125;</span><br><span class="line">    ],</span><br><span class="line">    &quot;blockhash&quot; : &quot;000000000000000488f18f7659acd85b2bd06a5ed2c4439eea74a8b968d16656&quot;,</span><br><span class="line">    &quot;confirmations&quot; : 19,</span><br><span class="line">    &quot;time&quot; : 1383235737,</span><br><span class="line">    &quot;blocktime&quot; : 1383235737</span><br><span class="line">&#125;</span><br></pre></td></tr></table></figure>
<p><code>scriptPubKey</code>位于”vout”[0]-&gt;”scriptPubKey”-&gt;”hex”，即： <em>76a914d6c492056f3f99692b56967a42b8ad44ce76b67a88ac</em> 。</p>
<p>签名使用ECDSA算法，对其，“空白交易”签名之，执行：</p>
<figure class="highlight plain"><table><tr><td class="gutter"><pre><span class="line">1</span><br><span class="line">2</span><br><span class="line">3</span><br></pre></td><td class="code"><pre><span class="line">bitcoind signrawtransaction \</span><br><span class="line">&quot;010000000156211389e5410a9fd1fc684ea3a852b8cee07fd15398689d99441b98bfa76e290000000000ffffffff0280969800000000001976a914fdc7990956642433ea75cabdcc0a9447c5d2b4ee88acd0e89600000000001976a914d6c492056f3f99692b56967a42b8ad44ce76b67a88ac00000000&quot; \</span><br><span class="line">&apos;[&#123;&quot;txid&quot;:&quot;296ea7bf981b44999d689853d17fe0ceb852a8a34e68fcd19f0a41e589132156&quot;,&quot;vout&quot;:0,&quot;scriptPubKey&quot;:&quot;76a914d6c492056f3f99692b56967a42b8ad44ce76b67a88ac&quot;&#125;]&apos;</span><br></pre></td></tr></table></figure>
<p>输出：</p>
<figure class="highlight plain"><table><tr><td class="gutter"><pre><span class="line">1</span><br><span class="line">2</span><br><span class="line">3</span><br><span class="line">4</span><br></pre></td><td class="code"><pre><span class="line">&#123;</span><br><span class="line">    &quot;hex&quot; : &quot;010000000156211389e5410a9fd1fc684ea3a852b8cee07fd15398689d99441b98bfa76e29000000008c493046022100f9da4f53a6a4a8317f6e7e9cd9a7b76e0f5e95dcdf70f1b1e2b3548eaa3a6975022100858d48aed79da8873e09b0e41691f7f3e518ce9a88ea3d03f7b32eb818f6068801410477c075474b6798c6e2254d3d06c1ae3b91318ca5cc62d18398697208549f798e28efb6c55971a1de68cca81215dd53686c31ad8155cdc03563bf3f73ce87b4aaffffffff0280969800000000001976a914fdc7990956642433ea75cabdcc0a9447c5d2b4ee88acd0e89600000000001976a914d6c492056f3f99692b56967a42b8ad44ce76b67a88ac00000000&quot;,</span><br><span class="line">    &quot;complete&quot; : true</span><br><span class="line">&#125;</span><br></pre></td></tr></table></figure>
<p>签名后，签名值会填入上文所述的空字段中，从而得到一个完整的交易。可通过上文介绍的命令<code>decoderawtransaction &lt;hex string&gt;</code>解码查看之。</p>
<p>最后一步，就是将其广播出去，等待网络传播至所有节点，约10~60秒广播至全球节点，取决与你的节点的网络连接状况。稍后一些时刻，就会进入Block中。广播由命令<code>sendrawtransaction &lt;hex string&gt;</code>来完成。如果没有运行节点，可以通过公共节点的API进行广播，例如：<a href="https://blockchain.info/pushtx" target="_blank" rel="noopener">blockchain.info/pushtx</a>。</p>
<p>执行：</p>
<figure class="highlight plain"><table><tr><td class="gutter"><pre><span class="line">1</span><br><span class="line">2</span><br></pre></td><td class="code"><pre><span class="line">bitcoind sendrawtransaction \</span><br><span class="line">&quot;010000000156211389e5410a9fd1fc684ea3a852b8cee07fd15398689d99441b98bfa76e29000000008c493046022100f9da4f53a6a4a8317f6e7e9cd9a7b76e0f5e95dcdf70f1b1e2b3548eaa3a6975022100858d48aed79da8873e09b0e41691f7f3e518ce9a88ea3d03f7b32eb818f6068801410477c075474b6798c6e2254d3d06c1ae3b91318ca5cc62d18398697208549f798e28efb6c55971a1de68cca81215dd53686c31ad8155cdc03563bf3f73ce87b4aaffffffff0280969800000000001976a914fdc7990956642433ea75cabdcc0a9447c5d2b4ee88acd0e89600000000001976a914d6c492056f3f99692b56967a42b8ad44ce76b67a88ac00000000&quot;</span><br></pre></td></tr></table></figure>
<p>输出：</p>
<figure class="highlight plain"><table><tr><td class="gutter"><pre><span class="line">1</span><br></pre></td><td class="code"><pre><span class="line">b5f8da1ea9e02ec3cc0765f9600f49945e94ed4b0c88ed0648896bf3e213205d</span><br></pre></td></tr></table></figure>
<p>返回的是Transaction Hash值，即<a href="https://blockchain.info/tx/b5f8da1ea9e02ec3cc0765f9600f49945e94ed4b0c88ed0648896bf3e213205d" target="_blank" rel="noopener">该交易</a>的ID。至此，交易构造、签名、发送的完整过程完成了。</p>
<h3 id="合成地址交易"><a href="#合成地址交易" class="headerlink" title="合成地址交易"></a>合成地址交易</h3><p>合成地址以3开头，可以实现多方管理资产，极大提高安全性，也可以轻松实现基于比特币原生的三方交易担保支付。一个<code>M-of-N</code>的模式：</p>
<figure class="highlight plain"><table><tr><td class="gutter"><pre><span class="line">1</span><br></pre></td><td class="code"><pre><span class="line">m &#123;pubkey&#125;...&#123;pubkey&#125; n OP_CHECKMULTISIG</span><br></pre></td></tr></table></figure>
<p>M和N需满足：</p>
<ul>
<li><code>1&lt;=N&lt;=3</code></li>
<li><code>1&lt;=M&lt;=N</code></li>
</ul>
<p>可以是<code>1 of 1</code>，<code>1 of 2</code>，<code>2 of 3</code>等组合，通常选择<code>N=3</code>：</p>
<ul>
<li><code>1 of 3</code>，最大程度私钥冗余。防丢私钥损失，3把私钥中任意一把即可签名发币，即使丢失2把都可以保障不受损失；</li>
<li><code>2 of 3</code>，提高私钥冗余度的同时解决单点信任问题。3把私钥任意2把私钥可签名发币，三方不完全信任的情形，即中介交易中，非常适用；</li>
<li><code>3 of 3</code>，最大程度解决资金信任问题，无私钥冗余。必须3把私钥全部签名才能发币，适用多方共同管理重要资产，但任何一方遗失私钥均造成严重损失；</li>
</ul>
<p>合成地址的交易构造、签名、发送过程与普通交易类似，这里只介绍如何创建一个合成地址。大神Gavin Andresen已经演示过，下面内容摘自其<a href="https://gist.github.com/gavinandresen/3966071" target="_blank" rel="noopener">gist</a>.</p>
<p>首先，需要三对公钥、私钥。公钥创建地址、私钥用于签名。</p>
<figure class="highlight plain"><table><tr><td class="gutter"><pre><span class="line">1</span><br><span class="line">2</span><br><span class="line">3</span><br><span class="line">4</span><br><span class="line">5</span><br><span class="line">6</span><br></pre></td><td class="code"><pre><span class="line"># No.1</span><br><span class="line">0491bba2510912a5bd37da1fb5b1673010e43d2c6d812c514e91bfa9f2eb129e1c183329db55bd868e209aac2fbc02cb33d98fe74bf23f0c235d6126b1d8334f86 / 5JaTXbAUmfPYZFRwrYaALK48fN6sFJp4rHqq2QSXs8ucfpE4yQU</span><br><span class="line"># No.2 </span><br><span class="line">04865c40293a680cb9c020e7b1e106d8c1916d3cef99aa431a56d253e69256dac09ef122b1a986818a7cb624532f062c1d1f8722084861c5c3291ccffef4ec6874 / 5Jb7fCeh1Wtm4yBBg3q3XbT6B525i17kVhy3vMC9AqfR6FH2qGk</span><br><span class="line"># No.3</span><br><span class="line">048d2455d2403e08708fc1f556002f1b6cd83f992d085097f9974ab08a28838f07896fbab08f39495e15fa6fad6edbfb1e754e35fa1c7844c41f322a1863d46213 / 5JFjmGo5Fww9p8gvx48qBYDJNAzR9pmH5S389axMtDyPT8ddqmw</span><br></pre></td></tr></table></figure>
<p>使用命令：<code>createmultisig &lt;nrequired&gt; &lt;&#39;[&quot;key&quot;,&quot;key&quot;]&#39;&gt;</code>来合成，其中<code>key</code>为公钥，创建地址时仅需公钥。创建类型是<code>2 of 3</code>.</p>
<p>输入：</p>
<figure class="highlight plain"><table><tr><td class="gutter"><pre><span class="line">1</span><br><span class="line">2</span><br></pre></td><td class="code"><pre><span class="line">bitcoind createmultisig 2 \</span><br><span class="line">&apos;[&quot;0491bba2510912a5bd37da1fb5b1673010e43d2c6d812c514e91bfa9f2eb129e1c183329db55bd868e209aac2fbc02cb33d98fe74bf23f0c235d6126b1d8334f86&quot;,&quot;04865c40293a680cb9c020e7b1e106d8c1916d3cef99aa431a56d253e69256dac09ef122b1a986818a7cb624532f062c1d1f8722084861c5c3291ccffef4ec6874&quot;,&quot;048d2455d2403e08708fc1f556002f1b6cd83f992d085097f9974ab08a28838f07896fbab08f39495e15fa6fad6edbfb1e754e35fa1c7844c41f322a1863d46213&quot;]&apos;</span><br></pre></td></tr></table></figure>
<p>输出：</p>
<figure class="highlight plain"><table><tr><td class="gutter"><pre><span class="line">1</span><br><span class="line">2</span><br><span class="line">3</span><br><span class="line">4</span><br></pre></td><td class="code"><pre><span class="line">&#123;</span><br><span class="line">    &quot;address&quot; : &quot;3QJmV3qfvL9SuYo34YihAf3sRCW3qSinyC&quot;,</span><br><span class="line">    &quot;redeemScript&quot; : &quot;52410491bba2510912a5bd37da1fb5b1673010e43d2c6d812c514e91bfa9f2eb129e1c183329db55bd868e209aac2fbc02cb33d98fe74bf23f0c235d6126b1d8334f864104865c40293a680cb9c020e7b1e106d8c1916d3cef99aa431a56d253e69256dac09ef122b1a986818a7cb624532f062c1d1f8722084861c5c3291ccffef4ec687441048d2455d2403e08708fc1f556002f1b6cd83f992d085097f9974ab08a28838f07896fbab08f39495e15fa6fad6edbfb1e754e35fa1c7844c41f322a1863d4621353ae&quot;</span><br><span class="line">&#125;</span><br></pre></td></tr></table></figure>
<p>得到的合成地址是：<code>3QJmV3qfvL9SuYo34YihAf3sRCW3qSinyC</code>，该地址没有公钥，仅有<code>redeemScript</code>，作用与公钥相同。后续的构造、签名、发送过程与上文普通地址交易类似，略去。</p>

      
    </div>
    <footer class="article-footer">
      <a data-url="http://panzhibiao.com/2013/10/27/bitcoin-transaction-02/" data-id="cjspj67fn0003obs6ju6bxjkq" class="article-share-link">Share</a>
      
        <a href="http://panzhibiao.com/2013/10/27/bitcoin-transaction-02/#disqus_thread" class="article-comment-link">Comments</a>
      
      
      
    </footer>
  </div>
  
    
<nav id="article-nav">
  
    <a href="/2014/06/14/open-nodes-plan/" id="article-nav-newer" class="article-nav-link-wrap">
      <strong class="article-nav-caption">Newer</strong>
      <div class="article-nav-title">
        
          开放节点计划
        
      </div>
    </a>
  
  
    <a href="/2013/10/27/bitcoin-transaction-01/" id="article-nav-older" class="article-nav-link-wrap">
      <strong class="article-nav-caption">Older</strong>
      <div class="article-nav-title">比特币交易构成（一）</div>
    </a>
  
</nav>

  
</article>


<section id="comments">
  <div id="disqus_thread">
    <noscript>Please enable JavaScript to view the <a href="//disqus.com/?ref_noscript">comments powered by Disqus.</a></noscript>
  </div>
</section>

</section>
        
          <aside id="sidebar">
  
    

  
    

  
    
  
    
  <div class="widget-wrap">
    <h3 class="widget-title">Archives</h3>
    <div class="widget">
      <ul class="archive-list"><li class="archive-list-item"><a class="archive-list-link" href="/archives/2019/03/">March 2019</a></li><li class="archive-list-item"><a class="archive-list-link" href="/archives/2019/02/">February 2019</a></li><li class="archive-list-item"><a class="archive-list-link" href="/archives/2018/03/">March 2018</a></li><li class="archive-list-item"><a class="archive-list-link" href="/archives/2016/04/">April 2016</a></li><li class="archive-list-item"><a class="archive-list-link" href="/archives/2015/03/">March 2015</a></li><li class="archive-list-item"><a class="archive-list-link" href="/archives/2014/06/">June 2014</a></li><li class="archive-list-item"><a class="archive-list-link" href="/archives/2013/10/">October 2013</a></li><li class="archive-list-item"><a class="archive-list-link" href="/archives/2013/08/">August 2013</a></li><li class="archive-list-item"><a class="archive-list-link" href="/archives/2013/07/">July 2013</a></li></ul>
    </div>
  </div>


  
    
  <div class="widget-wrap">
    <h3 class="widget-title">Recent Posts</h3>
    <div class="widget">
      <ul>
        
          <li>
            <a href="/2019/03/01/Taproot/">Taproot简介</a>
          </li>
        
          <li>
            <a href="/2019/02/28/schnorr-sigature/">Schnorr签名介绍</a>
          </li>
        
          <li>
            <a href="/2019/02/24/MAST/">MAST, Merkelized Abstract Syntax Tree</a>
          </li>
        
          <li>
            <a href="/2019/02/21/bip143/">bip143-新的交易签名摘要算法</a>
          </li>
        
          <li>
            <a href="/2019/02/21/BIP141/">BIP141, Segregated Witness</a>
          </li>
        
      </ul>
    </div>
  </div>

  
</aside>
        
      </div>
      <footer id="footer">
  
  <div class="outer">
    <div id="footer-info" class="inner">
      &copy; 2019 Kevin Pan<br>
      Powered by <a href="https://hexo.io/" target="_blank">Hexo</a>
    </div>
  </div>
</footer>

    </div>
    <nav id="mobile-nav">
  
    <a href="/" class="mobile-nav-link">Home</a>
  
    <a href="/archives" class="mobile-nav-link">Archives</a>
  
</nav>
    
<script>
  var disqus_shortname = 'bitkevin';
  
  var disqus_url = 'http://panzhibiao.com/2013/10/27/bitcoin-transaction-02/';
  
  (function(){
    var dsq = document.createElement('script');
    dsq.type = 'text/javascript';
    dsq.async = true;
    dsq.src = '//' + disqus_shortname + '.disqus.com/embed.js';
    (document.getElementsByTagName('head')[0] || document.getElementsByTagName('body')[0]).appendChild(dsq);
  })();
</script>


<script src="//ajax.googleapis.com/ajax/libs/jquery/2.0.3/jquery.min.js"></script>


  <link rel="stylesheet" href="/fancybox/jquery.fancybox.css">
  <script src="/fancybox/jquery.fancybox.pack.js"></script>


<script src="/js/script.js"></script>




  </div>
</body>
</html>